:020000040800F2
:1000000000000120F5610008456200084562000813
:1000100045620008456200084562000800000000D3
:100020000000000000000000000000004562000821
:1000300045620008000000004562000817560008ED
:1000400045620008456200084562000845620008F4
:100050004562000845620008055700080B57000874
:10006000115700084D570008535700084562000813
:1000700045620008456200084562000845620008C4
:100080004562000845620008456200080000000063
:1000900000000000000000000000000059570008A8
:1000A000A546000831460008B94600085546000834
:1000B000694600087D4600087D1400084562000876
:1000C0004562000845620008456200084562000874
:1000D00045620008855B00089D5B00080000000089
:1000E000B157000845620008957100080000000043
:1000F0000000000000000000000000004562000851
:1001000000000000456200089146000845620008B2
:1001100000000000000000000000000000000000DF
:100120004562000845620008456200084562000813
:100130004562000800000000000000000000000010
:1001400000000000000000000000000089710008AD
:10015000456200084562000845620008B95B000876
:100160004562000845620008000000000000000031
:10017000000000000000000000000000000000007F
:1001800000000000456200080000000000000000C0
:0401900045620008BC
:10019800034613F8012B002AFBD1181A01387047BF
:1001A80081F0004102E000BF83F0004330B54FEA20
:1001B80041044FEA430594EA050F08BF90EA020F8D
:1001C8001FBF54EA000C55EA020C7FEA645C7FEA20
:1001D800655C00F0E2804FEA5454D4EB5555B8BF43
:1001E8006D420CDD2C4480EA020281EA030382EAB4
:1001F800000083EA010180EA020281EA0303362D46
:1002080088BF30BD11F0004F4FEA01314FF4801C18
:100218004CEA113102D0404261EB410113F0004F2A
:100228004FEA03334CEA133302D0524263EB4303E1
:1002380094EA050F00F0A780A4F10104D5F1200E7F
:100248000DDB02FA0EFC22FA05F2801841F10001DA
:1002580003FA0EF2801843FA05F359410EE0A5F1AE
:1002680020050EF1200E012A03FA0EFC28BF4CF0DF
:10027800020C43FA05F3C01851EBE37101F0004595
:1002880007D54FF0000EDCF1000C7EEB00006EEBA2
:100298000101B1F5801F1BD3B1F5001F0CD349082C
:1002A8005FEA30004FEA3C0C04F101044FEA445283
:1002B80012F5800F80F09A80BCF1004F08BF5FEA0A
:1002C800500C50F1000041EB045141EA050130BDEA
:1002D8005FEA4C0C404141EB0101013C28BFB1F5FC
:1002E800801FE9D291F0000F04BF01460020B1FA47
:1002F80081F308BF2033A3F10B03B3F120020CDA1A
:100308000C3208DD02F1140CC2F10C0201FA0CF0F7
:1003180021FA02F10CE002F11402D8BFC2F1200C5C
:1003280001FA02F120FA0CFCDCBF41EA0C01904012
:10033800E41AA2BF01EB0451294330BD6FEA04045B
:100348001F3C1CDA0C340EDC04F11404C4F1200246
:1003580020FA04F001FA02F340EA030021FA04F358
:1003680045EA030130BDC4F10C04C4F1200220FAAF
:1003780002F001FA04F340EA0300294630BD21FAED
:1003880004F0294630BD94F0000F83F4801306BFB3
:1003980081F480110134013D4EE77FEA645C18BFA7
:1003A8007FEA655C29D094EA050F08BF90EA020F3E
:1003B80005D054EA000C04BF1946104630BD91EA36
:1003C800030F1EBF0021002030BD5FEA545C05D139
:1003D8004000494128BF41F0004130BD14F5800478
:1003E8003CBF01F5801130BD01F0004545F0FE41EC
:1003F80041F470014FF0000030BD7FEA645C1ABF21
:10040800194610467FEA655C1CBF0B46024650EA57
:10041800013406BF52EA033591EA030F41F4002183
:1004280030BD00BF90F0000F04BF0021704730B509
:100438004FF4806404F132044FF000054FF00001DE
:1004480050E700BF90F0000F04BF0021704730B59F
:100458004FF4806404F1320410F0004548BF404274
:100468004FF000013EE700BF42004FEAE2014FEAC9
:1004780031014FEA02701FBF12F07F4393F07F4FA4
:1004880081F06051704732F07F4208BF704793F0A7
:100498007F4F04BF41F40021704730B54FF46074BA
:1004A80001F0004521F000411CE700BF50EA0102BD
:1004B80008BF704730B54FF000050AE050EA010266
:1004C80008BF704730B511F0004502D5404261EBD6
:1004D80041014FF4806404F132045FEA915C3FF417
:1004E800D8AE4FF003025FEADC0C18BF03325FEAB4
:1004F800DC0C18BF033202EBDC02C2F1200300FA65
:1005080003FC20FA02F001FA03FE40EA0E0021FA89
:1005180002F11444BDE600BF70B54FF0FF0C4CF477
:10052800E06C1CEA11541DBF1CEA135594EA0C0F29
:1005380095EA0C0F00F0DEF82C4481EA030621EA64
:100548004C5123EA4C5350EA013518BF52EA03359F
:1005580041F4801143F4801338D0A0FB02CE4FF051
:100568000005E1FB02E506F00042E0FB03E54FF081
:100578000006E1FB03569CF0000F18BF4EF0010E79
:10058800A4F1FF04B6F5007F64F5407404D25FEA75
:100598004E0E6D4146EB060642EAC62141EA555128
:1005A8004FEAC52040EA5E504FEACE2EB4F1FD0C6A
:1005B80088BFBCF5E06F1ED8BEF1004F08BF5FEAE8
:1005C800500E50F1000041EB045170BD06F000469A
:1005D80046EA010140EA020081EA0301B4EB5C0447
:1005E800C2BFD4EB0C0541EA045170BD41F480113F
:1005F8004FF0000E013C00F3AB8014F1360FDEBF64
:10060800002001F0004170BDC4F10004203C35DA3F
:100618000C341BDC04F11404C4F1200500FA05F3C2
:1006280020FA04F001FA05F240EA020001F0004263
:1006380021F0004110EBD37021FA04F642EB0601D9
:100648005EEA430E08BF20EAD37070BDC4F10C0403
:10065800C4F1200500FA04F320FA05F001FA04F2C7
:1006680040EA020001F0004110EBD37041F10001B3
:100678005EEA430E08BF20EAD37070BDC4F12005BE
:1006880000FA05F24EEA020E20FA04F301FA05F226
:1006980043EA020321FA04F001F0004121FA04F2CE
:1006A80020EA020000EBD3705EEA430E08BF20EA9E
:1006B800D37070BD94F0000F0FD101F000464000D8
:1006C80041EB010111F4801F08BF013CF7D041EA5A
:1006D800060195F0000F18BF704703F0004652005E
:1006E80043EB030313F4801F08BF013DF7D043EA2F
:1006F8000603704794EA0C0F0CEA135518BF95EAE5
:100708000C0F0CD050EA410618BF52EA4306D1D16B
:1007180081EA030101F000414FF0000070BD50EA8A
:10072800410606BF1046194652EA430619D094EA14
:100738000C0F02D150EA013613D195EA0C0F05D1FE
:1007480052EA03361CBF104619460AD181EA030152
:1007580001F0004141F0FE4141F470014FF000000A
:1007680070BD41F0FE4141F4780170BD70B54FF0A5
:10077800FF0C4CF4E06C1CEA11541DBF1CEA135525
:1007880094EA0C0F95EA0C0F00F0A7F8A4EB050407
:1007980081EA030E52EA03354FEA013100F08880FE
:1007A8004FEA03334FF0805545EA131343EA1263C7
:1007B8004FEA022245EA111545EA10654FEA00267C
:1007C8000EF000419D4208BF964244F1FD0404F535
:1007D800407402D25B084FEA3202B61A65EB030591
:1007E8005B084FEA32024FF480104FF4002CB6EB4E
:1007F800020E75EB030E22BFB61A754640EA0C00CE
:100808005B084FEA3202B6EB020E75EB030E22BF0D
:10081800B61A754640EA5C005B084FEA3202B6EB4E
:10082800020E75EB030E22BFB61A754640EA9C000D
:100838005B084FEA3202B6EB020E75EB030E22BFDD
:10084800B61A754640EADC0055EA060E18D04FEA9B
:10085800051545EA16754FEA06164FEAC30343EA3B
:1008680052734FEAC2025FEA1C1CC0D111F4801F08
:100878000BD141EA00014FF000004FF0004CB6E701
:1008880011F4801F04BF01430020B4F1FD0C88BFA0
:10089800BCF5E06F3FF6AFAEB5EB030C04BFB6EBAB
:1008A800020C5FEA500C50F1000041EB045170BD9E
:1008B8000EF0004E4EEA113114EB5C04C2BFD4EBCB
:1008C8000C0541EA045170BD41F480114FF0000E4F
:1008D800013C90E645EA060E8DE60CEA135594EACB
:1008E8000C0F08BF95EA0C0F3FF43BAF94EA0C0FCE
:1008F8000AD150EA01347FF434AF95EA0C0F7FF443
:1009080025AF104619462CE795EA0C0F06D152EA96
:1009180003353FF4FDAE1046194622E750EA41067A
:1009280018BF52EA43067FF4C5AE50EA41047FF48B
:100938000DAF52EA43057FF4EBAE12E74FF0FF3CF0
:1009480006E000BF4FF0010C02E000BF4FF0010CC1
:100958004DF804CD4FEA410C7FEA6C5C4FEA430C3A
:1009680018BF7FEA6C5C1BD001B050EA410C0CBF89
:1009780052EA430C91EA030F02BF90EA020F0020EB
:10098800704710F1000F91EA030F58BF994208BF52
:1009980090422CBFD8176FEAE37040F0010070470F
:1009A8004FEA410C7FEA6C5C02D150EA013C07D166
:1009B8004FEA430C7FEA6C5CD6D152EA033CD3D0B1
:1009C8005DF8040B704700BF8446104662468C46AB
:1009D8001946634600E000BF01B5FFF7B7FF0028DE
:1009E80048BF10F1000F01BD4DF808EDFFF7F4FF07
:1009F8000CBF012000205DF808FB00BF4DF808ED92
:100A0800FFF7EAFF34BF012000205DF808FB00BFB4
:100A18004DF808EDFFF7E0FF94BF012000205DF8D6
:100A280008FB00BF4DF808EDFFF7CEFF94BF01208B
:100A380000205DF808FB00BF4DF808EDFFF7C4FF84
:100A480034BF012000205DF808FB00BF4FEA410CCD
:100A58007FEA6C5C02D150EA013C0AD14FEA430CB0
:100A68007FEA6C5C02D152EA033C02D14FF00000ED
:100A780070474FF0010070474FEA410212F500122B
:100A880015D211D56FF47873B3EB625212D94FEACD
:100A9800C12343F0004343EA505311F0004F23FAB7
:100AA80002F018BF404270474FF00000704750EA0C
:100AB800013005D111F0004008BF6FF000407047C9
:100AC8004FF00000704700BF4A0011D212F5001223
:100AD80011D20DD56FF47873B3EB62520ED44FEA8E
:100AE800C12343F0004343EA505323FA02F070470E
:100AF8004FF00000704750EA013002D14FF0FF304C
:100B080070474FF0000070474FEA4102B2F1E043EE
:100B180024BFB3F5001CDCF1FE5C0DD901F0004CDC
:100B28004FEAC0024CEA5070B2F1004F40EB83002C
:100B380008BF20F00100704711F0804F21D113F158
:100B48003872BCBF01F00040704741F480114FEA91
:100B58005252C2F11802C2F1200C10FA0CF320FA1A
:100B680002F018BF40F001004FEAC1234FEAD32337
:100B780003FA0CFC40EA0C0023FA02F34FEA4303A1
:100B8800CCE77FEA625307D150EA01331EBF4FF02A
:100B9800FE4040F44000704701F0004040F0FE4045
:100BA80040F40000704700BF53B94AB9002908BF94
:100BB80000281CBF4FF0FF314FF0FF3000F00CB899
:100BC800ADF1080C6DE904CE07F006FADDF804E093
:100BD800DDE9022304B07047704700BF10B5054C2B
:100BE800237833B9044B13B10448AFF300800123D1
:100BF800237010BD1C02002000000000B88200080D
:100C080008B5034B1BB103490348AFF3008008BD87
:100C18000000000020020020B88200081FB501244F
:100C2800002132231E229FED141ADFED140A144806
:100C3800CDE90232CDE900411023C822B2EE040A00
:100C480000F042FE0E48B3EE0E0A00F041FD2146C8
:100C58009FED0C0A0A4800F057FC21469FED0A0A4E
:100C6800074800F025FC09484FF4E13104B0BDE81D
:100C7800104005F099BA00BF00000000CDCC4C3EF2
:100C8800380200200000FA440000FA430807002058
:100C9800014800F091BC00BF3802002008B5184890
:100CA8002DED028B05F004FA002821DD20211548DE
:100CB80000F0EEFB0146D8B90122114805F094F97D
:100CC80008EE100A322006F0A8FBB8EEC80A0D4854
:100CD80000F0D6FC0B48012101F0E8F910EE100AEB
:100CE800FFF7C2FB41EC100B0548022105F0ECF8B8
:100CF800BDEC028B1420BDE8084006F08EBB00BF97
:100D08000807002038020020054B1A6B02431A63BB
:100D18001B6B82B018400190019B02B0704700BF66
:100D280000380240704710B5C0E90012836010BD5A
:100D38008268016893690B43936170478268016810
:100D4800936943EA01439361704783681A690368AA
:100D58001A4214BF01200020704700008368104A1F
:100D6800934202D10120FFF7CFBF0E4A934201D12F
:100D78000220F8E70C4A934201D10420F3E70B4A1A
:100D8800934201D10820EEE7094A934201D110208D
:100D9800E9E7084A934201D18020E4E7704700BFA1
:100DA800000002400004024000080240000C02401B
:100DB80000100240001C024030B587B004461822DB
:100DC8000D466846002106F033FF2046FFF7C6FFB0
:100DD8000A492368009302220323CDE901238D42A7
:100DE8000CBF062505250023A06805956946CDE9B1
:100DF800033303F007FD07B030BD00BF003C0040DF
:100E080010B586B0044618220021684606F010FF87
:100E18002046FFF7A3FF2368009301220323CDE9AF
:100E28000123A06800236946CDE9033303F0EAFCF7
:100E380006B010BD10B586B00446182200216846D9
:100E480006F0F6FE2046FFF789FF23680093032289
:100E58000023A06804936946CDE9013203F0D2FC6F
:100E680006B010BD2DE9F04F80468BB08A469146FA
:100E78000021182204A81F4606F0DAFED8F804401C
:100E88000023CDE90233002C00F0AA80012C00F0E9
:100E9800A980022C00F0A880032C00F0A780042C65
:100EA80000F0A680631F052B34BF17262826D8F824
:100EB8000830724A934200F09D8002F580629342A6
:100EC80000F09C8002F58062934200F09B8002F55E
:100ED8008062934200F09A8002F5806293420BBFD1
:100EE800102080204FF0040B4FF0070B002C00F06F
:100EF8009180012C00F09280022C00F09380032C4A
:100F080000F09480042C00F09580052C00F095806A
:100F1800062C00F09580072C00F09580082C00F036
:100F28009580092C00F096800A2C00F097800B2CF5
:100F380000F098800C2C00F099800D2C00F09A801D
:100F48004F4B0E2C18BF4FF400454E4C04BF4FF4C6
:100F580080451C46FFF7D8FE4B4BD8F808005A6C62
:100F680042F480425A645B6CCDF820A003F48043BD
:100F78000193019BD8F8003004930022032304A9AD
:100F8800CDE9052303F03EFCE3B29B0003F1804367
:100F980003F59C33220C9968029521EA144192FAD0
:100FA800A2F4B4FA84F40BFA04FB4BEA0101996049
:100FB800012402A8ADF80C408DF80E9003F0CEFB8A
:100FC800324B3F019A19FFB282F80073720906F09A
:100FD8001F0604FA06F643F822600BB0BDE8F08F4E
:100FE800062664E7072662E7082660E709265EE723
:100FF8000A265CE701204FF0000B77E702204FF04C
:10100800010B73E704204FF0020B6FE708204FF045
:10101800030B6BE74FF4702401259BE74FF4700432
:10102800022597E74FF07064042593E74FF070446A
:1010380008258FE7164C10258CE7164C202589E7E4
:10104800154C402586E7154C802583E7144C4FF452
:1010580080757FE7134C4FF400757BE7124C4FF413
:10106800806577E7114C4FF4006573E7104C4FF437
:1010780080556FE70F4C4FF400556BE700000240B6
:101088000300000F030000F00038024000E100E018
:1010980001000F000100F0000100000F010000F046
:1010A80002000F000200F0000200000F020000F032
:1010B80003000F000300F00082B02DE9F0418046E4
:1010C800071D06A908F12806384681E80C0008F132
:1010D8004C04FFF727FE3046FFF724FE08F17005A1
:1010E8002046FFF71FFE2846FFF71CFE00230DF1E0
:1010F800180C88F89430C8F89830BCE80F000FC76F
:10110800BCE80F000FC7DCF800303B600FAF0FCF13
:101118000FC60FCF0FC63B68336018AE0FCE0FC592
:101128000FCE0FC533682B6021AD0FCD0FC40FCD87
:101138000FC42B6823602A9BC8F800304046BDE8DE
:10114800F04102B07047000070B504468EB000212F
:10115800282204A806F06CFD21683E4B994247D12D
:1011680003F584335A6C42F480525A645B6C03F47E
:1011780080530093009B26462546201DFFF71CFE42
:1011880056F8701B04F12800FFF716FE55F84C1BA3
:101198003046FFF711FE2846FFF732FE2846FFF7D4
:1011A800C7FD00234FF48272CDE904324FF4006288
:1011B800CDE906234FF400730122CDE90823206806
:1011C800254B984241D118230A930023CDE90B33CC
:1011D80004A90A230D9303F0AFFB23685A6822F091
:1011E80010025A601A6842F040021A600EB070BDD0
:1011F800194B99420BD103F500331A6C42F4804223
:101208001A641B6C03F480430193019BB3E7134BEF
:1012180099420BD103F5FE331A6C42F400421A646A
:101228001B6C03F400430293029BA4E70C4B994206
:10123800A1D103F582335A6C42F400525A645B6CB4
:1012480003F400530393039B95E7044B9842BCD1E6
:101258001023B9E70030014000380040003C00404E
:101268000034014090F894007047036810B51C687A
:1012780024F400641C600024C0F898409C6814F0B2
:1012880080040AD0D0F89840944204D9012380F809
:101298009430002010BD0134EEE7C0F898409C68F7
:1012A800A40705D4D0F89840A242EFD30134F4E75C
:1012B800D960002180F89410C0F898109968CC077C
:1012C80005D4D0F898108A42E0D30131F4E7002120
:1012D800C0F89810996811F0800105D0D0F89810DE
:1012E8008A42D3D30131F3E7C0F898109968890787
:1012F80005D4D0F898108A42C8D30131F4E7D868E9
:10130800C0B2C7E7036810B51C6844F400641C60E9
:101318000024C0F898409C6814F080040AD0D0F8E3
:101328009840944204D9012380F89430002010BDDD
:101338000134EEE7C0F898409C68A40705D4D0F8BB
:101348009840A242EFD30134F4E7D960002180F835
:101358009410C0F898109968C90705D4D0F8981067
:101368008A42E0D30131F4E7D86880B2DFE74C3035
:10137800FFF7DEBC4C30FFF7E1BC0430FFF75ABD85
:1013880050F8041BFFF718BD024A136823F0010345
:101398001360704700080040034B00225A621A6825
:1013A80042F001021A6070470008004010B586B08C
:1013B8001422002101A806F03BFC294B1A6C42F0CC
:1013C80004021A641B6C03F004030093009B254B72
:1013D800DA68C2F30222C2F10701131D042928BFEB
:1013E8000421062B4FF0FF3303FA01F36FEA0303DE
:1013F8008CBF033A002203F0030393401B011A4AEF
:10140800DBB282F81E334FF080431360174C184A42
:10141800002301A92046CDE90323ADF80430029347
:1014280003F0BAFA236843F080032360A36823F427
:10143800804323F00703A360636823F070036360AD
:10144800A36823F08003A3606FF001032361E368BE
:1014580043F00103E360FFF79FFF06B010BD00BF34
:101468000038024000ED00E000E100E00008004024
:10147800D4D4050008B5044B5B689847034B6FF05C
:1014880001021A6108BD00BF0000002000080040EA
:1014980038B50446D8300D4601F08CF994F8483236
:1014A8001D420CBF0120002038BD000000000000D4
:1014B80038B5B0F8243307EE903AF8EE677A044668
:1014C80027EE800A0D46F0EEC07A17EE900AFEF776
:1014D800CBFF0BA3D3E90023FFF71EF8FFF714FB9C
:1014E80007EE900AC4F810034DB1FCEEE77A04F158
:1014F800D80017EE901ABDE8384001F0AFB838BDF3
:10150800A245B6F3FDD4FA3F38B5B0F8243307EE58
:10151800903AF8EE677A044627EE800A0D46F0EE18
:10152800C07A17EE900AFEF79FFF0BA3D3E90023BA
:10153800FEF7F2FFFFF7E8FA07EE900AC4F8140383
:101548004DB1FCEEE77A04F1D80017EE901ABDE829
:10155800384001F063B838BDBA490C022B87963F72
:1015680038B5B0F8243307EE903AF8EE677A0446B7
:1015780027EE800A0D46F0EEC07A17EE900AFEF7C5
:1015880073FF0BA3D3E90023FEF7C6FFFFF7BCFAEE
:1015980007EE900AC4F818034DB1FCEEE77A04F19F
:1015A800D80017EE901ABDE8384001F047B838BDAA
:1015B800BA490C022B87963F38B5044600F0ECFC7C
:1015C80004F1D80000F0C2FE04F5177001F012FA19
:1015D800104BC4F834330423A4F840330E4B9FED6A
:1015E8000F0A1C604FF480730025A4F824330C4BB9
:1015F800C4F814332946204684F8425384F84353E8
:10160800FFF7AEFF20469FED070A2946FFF750FF78
:10161800204638BD000020417C0500200000FA4427
:10162800000030460000C842D0EDC67AFCEEE77AEA
:1016380070B517EE903A00F1D80504460E462846D4
:1016480099B200F0FBFFD4EDC57AFCEEE77A2846A4
:1016580017EE903A99B200F0E1FFD4EDC47AFCEEAF
:10166800E77A284617EE901A00F0F8FF284601F0AE
:10167800A9F881192846BDE8704000F0BFBF0000F6
:1016880010B5D0EDC87A60EE277A2DED028B0446AE
:10169800B0EE408A17EE900AFEF7E6FEB5EEC08A75
:1016A800F1EE10FA094B4FF000020BD5FEF77CFD66
:1016B800FFF7E2F9BDEC028B01462046BDE8104079
:1016C800FFF7B2BFFEF772FDF2E700BF0000E03F90
:1016D8002DE9F0412DED048B90F830330446B0EE3F
:1016E800408A03F0FF072BB1012380F8323300232F
:1016F80080F83033002584F8435304F1D80694F871
:101708004313304601F061F8A846B1EE489A2046E6
:10171800012100F0CBFC2046F0EE408AB0EE480AEA
:10172800FFF7AEFF20212046FFF7B2FE0028F9D1CF
:101738002046012100F0BAFCB4EEE80AF1EE10FAF6
:101748004CBF013508F10103B0EE490A20464CBFF1
:10175800EDB25FFA83F8FFF793FF20212046FFF7E9
:1017680097FE0028F9D1B8F1000F03D0BDB10546A6
:101778008046CCE7022DCAD1012384F8433394F87C
:101788004313304601F021F82FB1002384F8323397
:10179800022384F83033BDEC048BBDE8F081B8F146
:1017A800020FF1D04FF00108B1E70000000000007F
:1017B80070B555EC104B0646174B10EE100A002278
:1017C8002946FFF725F9F0B10022002320462946D3
:1017D800FFF728F9B8B10EA3D3E90023204629461C
:1017E800FEF79AFE41EC100B06F076FB51EC100B5D
:1017F800FFF76AF9C3B286F8503206F1D800BDE89F
:10180800704000F084BE1023F5E700BFAFF30080FE
:10181800D7A3703D0AD7D33F00005940D0EDC77A0F
:1018280020EE270A13B5FDEEC07AD83017EE904A9D
:10183800002CCCBF01210021019000F020FF84EA98
:10184800E4710198A1EBE47102B0BDE8104000F02A
:1018580005BF00000000000070B555EC104B0646AF
:10186800174B10EE100A00222946FFF7D1F8F0B105
:101878000022002320462946FFF7D4F8B8B10EA36A
:10188800D3E9002320462946FEF746FE41EC100B1B
:1018980006F022FB51EC100BFFF716F9C3B286F8DD
:1018A800513206F1D800BDE8704000F030BE102378
:1018B800F5E700BFAFF30080D7A3703D0AD7D33F49
:1018C80000005940000000002DE9F04F2DED048B79
:1018D80083B0044604F1D80998469DF84030019336
:1018E800B0EE418AB0EE409AF0EE608A92460D461C
:1018F80000F0C0FC484601F005F8B4F824B3DFED69
:101908005E6AA4F826A307EE90AA07EE10BAF8EECE
:10191800677AB8EE477A012367EE877A84F832331C
:1019280087EEA67A504684EDC87AFEF78BFD4CA365
:10193800D3E90023FEF7F0FD064658460F46FEF7AA
:1019480081FD02460B4630463946FEF7E5FDFFF7B6
:10195800DBF89FED4A7A07EE900AC7EE877A0BFB11
:101968000AF0C4EDC77AFEF76DFD02460B4606463F
:101978000F4600204249FEF7F9FEFFF7C5F8404B35
:10198800C4F82803002230463946FEF7EFFEFFF779
:10199800BBF83C4BC4F82C03C4F80433304632A3DC
:1019A800D3E900233946FEF7E1FEFFF7ADF807EE6D
:1019B800900AF7EE006A86EEA77AC4F8080348464C
:1019C800D4EDC67A84EDC37AFCEEE77A17EE901A66
:1019D80000F034FED4EDC57AFCEEE77A484617EEFF
:1019E800901A00F01BFE9FED220B2046FFF7E0FE49
:1019F8009FED1F0B2046FFF72FFF019B23B19FEDA3
:101A0800220A204600F070FC012D04D1B2EE040A2F
:101A18002046FFF75DFE84F83053FFF7C7FC012D21
:101A280019D104F517704146019001F005F80198A5
:101A3800B0EE490A01F02CF80198B0EE680A01F0FE
:101A48002BF80198B0EE480A03B0BDEC048BBDE852
:101A5800F04F01F02BB803B0BDEC048BBDE8F08F5C
:101A6800B072681111111141FA817EFCA2E1414066
:101A780000000000000044400000B4438096184B6A
:101A880000004E4095BFD63F00000000024B1B6887
:101A980093F83003704700BF7C0500202DE9F84318
:101AA800294D286800F5157001F015F8002848D16F
:101AB8002868D83000F086FE044628680121B0F86E
:101AC800248300F0FFFA2E6896F832330746C3BB2A
:101AD8004046FEF7B7FC1D4B0022FEF71DFD002215
:101AE8004FF07C53FEF718FD804638468946FEF7CE
:101AF800A9FC02460B4640464946FEF70DFDFEF797
:101B0800BBFF241A07EE904AF8EEE77A0246C6EDC4
:101B1800CF7AD6EDCF7A96EDCD7AF0EEE77AB4EEBD
:101B2800E77AF1EE10FA0CD8212106F1D80000F07E
:101B3800A9FC28682D21BDE8F84350F8D82F00F0FB
:101B4800A1BCBDE8F88300BF7C0500200000694007
:101B5800B0EEC00A7047000080B582B000AF1F4BDE
:101B68001B6803F525731846FFF7EFF80346FB716A
:101B78001A4B1B6893F86832FA799A4215D1174BB9
:101B88001B68D3F8DC22154B1B68B3F82413134BDE
:101B98001B68B3F86C32B1FBF3F39BB219460F4BD9
:101BA8001B68521AC3F8DC2214E00C4B1B68D3F8EC
:101BB800DC220A4B1B68B3F82413084B1B68B3F8E4
:101BC8006C32B1FBF3F39BB21946044B1B680A4411
:101BD800C3F8DC2200BF0837BD4680BD7C05002065
:101BE8007047704700000000B0B584B000AF744B78
:101BF8001B68D3F8DC32BB60714B1B6803F53A7382
:101C0800B968184600F07CFF6D4B1B680121184627
:101C180000F058FA07EE900AF8EEE77A17EE900A05
:101C2800FEF722FC04460D46654B1B68B3F82433C7
:101C38001846FEF707FC4FF00002624BFEF76CFCFB
:101C480002460B4620462946FEF766FC02460B462E
:101C5800104619464FF000024FF07C53FEF75CFC2B
:101C680002460B4610461946FEF706FF0246BB68B9
:101C78009B1A7B60524B1B6803F53A73184600F0B9
:101C88006AFFF0EE407AB0EE670AFFF761FF10EEE8
:101C9800103A1846FEF7E8FB47A3D3E90023FEF7FE
:101CA80085FA02460B4610461946FEF72DFF0346F5
:101CB8003B607B6807EE903AB8EEE77A404B1B68CA
:101CC800D3ED977A67EE277AC7ED037AD7ED037AD3
:101CD800F5EEC07AF1EE10FA0BDD97ED037AD7ED49
:101CE800007AB4EEE77AF1EE10FA1ADD3B68FB6091
:101CF80017E0D7ED037AF5EEC07AF1EE10FA10D5B9
:101D0800D7ED007AF1EE677A97ED037AB4EEE77AC9
:101D1800F1EE10FA05D5D7ED007AF1EE677AC7ED46
:101D2800037A7B6807EE903AB8EEE77A244B1B6893
:101D3800D3ED987A27EE277A234BD3ED007A77EE06
:101D4800277A214BC3ED007A1F4BD3ED007A9FED24
:101D58001F7AF4EEC77AF1EE10FA03DD1A4B1C4A2B
:101D68001A600CE0184BD3ED007A9FED1A7AF4EE66
:101D7800C77AF1EE10FA02D5134B174A1A607B683E
:101D880013F1090F2CDB7B68092B29DC134B1B781B
:101D980083F00103DBB2002B2AD0094B1B68002219
:101DA80083F8E0220D4B01221A70074B4FF0000216
:101DB8001A601DE0AFF3008000000000006AE840F0
:101DC8007C0500200000694094050020005043482D
:101DD80000504348005043C8005043C88C050020B9
:101DE800554B1B68012283F8E022544B00221A70DD
:101DF800534BD3ED007A97ED037A77EE277AC7ED48
:101E0800037A504B1B681846FEF72EFB46A3D3E90E
:101E18000023FEF781FB02460B4610461946FEF7E3
:101E280073FE0346474A1360464B1B681846FEF785
:101E38001BFB04460D467B6807EE903AB8EEE77A3E
:101E4800414BD3ED007A37EE677A3B4B1B68D3EDF5
:101E5800997A67EE277A17EE900AFEF705FB34A306
:101E6800D3E90023FEF758FB02460B4620462946D5
:101E7800FEF79CF902460B4610461946FEF744FE4B
:101E88000346304A13607B6807EE903AF8EEE77A2B
:101E98002D4BC3ED007A2B4BD3ED007A97ED037AE7
:101EA80077EE277AC7ED037AF868FEF7DDFA04467D
:101EB8000D46214B1B68D3F828331846FEF7D4FA91
:101EC8004FF00002214BFEF727FB02460B46204647
:101ED8002946FEF721FB02460B4610461946FEF737
:101EE80013FE0346FB601A4AFB681360194A7B68B5
:101EF8001360114B1B6897ED030A1846FFF78EFC19
:101F08000D4B1B68D8334FF6FE71184600F096FB50
:101F1800094B1B68D8334FF6FE71184600F07EFB5C
:101F280000BF1037BD46B0BDCDCCCCCCCCCCEC3F3F
:101F38009A9999999999B93F7C0500208C050020B8
:101F4800940500208805002090050020000010401E
:101F5800800500208405002010B50D4C2068D03085
:101F680000F0B9FD98B9206800F0DEF8236893F80E
:101F78003023022A04D1074B1B68BDE810401847DC
:101F880093F83033012B02D1024B5B69F5E710BDA2
:101F98007C050020000000202DE9F041C8B0002792
:101FA8000DF190084FF03F43064607700C2243603E
:101FB8004FF480512A4B4046FEF7B5FE284B0B22C2
:101FC8004FF400612DA8FEF7AEFE254B0A224FF410
:101FD800806136A8FEF7A7FE224B0F224FF400417E
:101FE8003FA8FEF7A0FE204B22933FAC0FCC19ADC3
:101FF8000FC50FCC0FC523682B6036AC0FCC10ADC6
:102008000FC50FCC0FC523682B602DAC0FCC07ADC7
:102018000FC50FCC0FC523682B6026AD0FCD6C46BE
:102028000FC495E8070084E80700394698E80C00D3
:1020380006F10800FFF740F89FED0C0AC6F8AC70EF
:1020480006F1B40000F04CFD06F1D00000F038FDB8
:102058003046A6F8D270A6F8D47048B0BDE8F08132
:102068000008024000000240003C0040E6042A3A12
:1020780038B500F108042046FFF77CF9142248F22D
:1020880020012046FFF73EF92046FFF776F9142293
:1020980000212046FFF736F905462046FFF767F985
:1020A8002046FFF76DF9C5F30E0038BDD0ED2A7A4A
:1020B8009FED030AF8EEE77A27EE800A704700BF23
:1020C8000000343CD0F8A8007047000070B52DED32
:1020D800028B08EE101AB43000F03DFDF8EE487A95
:1020E80010EE106A17EE900AFEF7BEF90D4B0022AB
:1020F800FEF712FA00224FF07C53FEF70DFA044661
:1021080030460D46FEF7B0F902460B4620462946F2
:10211800FEF702FAFEF7F8FCBDEC028B00EE100A9F
:1021280070BD00BF000069402DE9F84300F1D007F9
:102138002DED028B0446384600F0C5FC064660B11A
:102148002046FFF795FF054604F10800FFF78AF8D7
:1021580040B1384600F0C1FC0026BDEC028B304689
:10216800BDE8F883B4F8B000281A03041FFA80F811
:10217800B4F8A45048BF88F40048A5EB0805ABB2F2
:102188002DB215F5804F03DAA3F500431DB202E026
:10219800B5F5804FF8DC2378002B58D0DFF8D090C5
:1021A800D9F80000D83000F0E7FAD9F8003007EE87
:1021B800900AB3F824132046B8EEE78AFFF786FFA3
:1021C800D4ED017A67EE887AB5EEC08A38EE277AC0
:1021D800F1EE10FAB4EEC07A14D5F1EE10FA06D486
:1021E80038EE678AB4EEC08AF1EE10FA14DDB4F85E
:1021F800D2309BB2B3F5FA7F0ED9B4F8D43001339C
:102208009BB20AE0F1EE10FAF1DC38EE678AB4EE20
:10221800C08AF1EE10FAEAD40023A4F8D430B4F856
:10222800D4309BB2032B8CBF012300236370B4F816
:10223800D23001339BB2A4F8D230B4F8D2309BB27A
:10224800B3F5FA7F84BF40F2F513A4F8D230D4F87E
:10225800A830A4F8A4801D44C4F8A85004F1B40020
:10226800D4F8A81000F04CFC384600F036FC74E7AF
:102278007C05002037B500F1080504462846FEF71E
:1022880063FF2846FFF776F8142245F281012846B5
:10229800FFF738F814224FF400612846FFF732F8A8
:1022A8002846FFF76AF8142200212846FFF72AF883
:1022B800C0F30E00ADF806002846FFF758F8284688
:1022C800FFF75EF82046FFF72FFFB4F8A430A4F814
:1022D800B03020460023A4F8A430C4F8A83003B0D6
:1022E800BDE83040FFF720BF70B5044610EE105A25
:1022F800FFF74AF8144B18680026D83000F03CFA6B
:10230800A4F8B0602046FFF70FFFB4F8A430A4F893
:10231800B030A4F8A4602846FEF7A6F808A3D3E9CD
:102328000023FEF7F9F8FEF7CFFB80B2C4F8A80047
:1023380004F1B40000F009FCBDE87040FFF72CB8C8
:10234800176CC1166CC156407C0500202DE9F04180
:10235800C8B000270DF1900804460760424B47605B
:102368000F224FF400414046FEF7DDFC3E4B0E22A3
:102378004FF480412DA8FEF7D6FC3B4B0D224FF4BD
:10238800005136A8FEF7CFFC374B0C224FF4805192
:102398003FA8FEF7C8FC354B22933FAD0FCD19AED1
:1023A8000FC60FCD0FC62B68336036AD0FCD10AEFC
:1023B8000FC60FCD0FC62B6833602DAD0FCD07AEFE
:1023C8000FC60FCD0FC62B68336026AE0FCE6D46F5
:1023D8000FC596E8070085E80700394698E80C001D
:1023E80004F10800FEF768FE214B0122022104F1E6
:1023F800A400FEF798FC1F4B08224FF4807104F1EB
:10240800C800FEF790FC1B4B0122022104F1EC00EE
:10241800FEF789FC174B0122022104F58870FEF7AC
:1024280082FC0221134B012204F59A70FEF77BFC13
:10243800114A0A23C4E95823104BC4F8683103F140
:10244800FA73C4F86C311023C4F87831C4E95677AC
:1024580004F5BE7000F034FB094BC4F88031204607
:1024680048B0BDE8F08100BF0004024000380040D9
:102478000000024000080240400D030058026400BA
:10248800FCF4B2442DE9F0410646344600F5BE7727
:1024980038461546884600F016FB54F8083F1A6877
:1024A80042F001021A601A6842F002021A602046DD
:1024B800FEF760FF88F0800114222046FEF7D5FE63
:1024C800290E86F8700114222046FEF7CEFEC5F3C9
:1024D8000741060214222046FEF7C7FE30430602D3
:1024E800C5F3072114222046FEF7BFFE304314220D
:1024F800E9B206022046FEF7B8FE06432046FEF77C
:1025080036FF384600F0E9FA3046BDE8F08190F829
:10251800783190F8791190F87A211B0201F01F01A7
:1025280003F4F85312040B4302F470221A431021E7
:10253800FFF7A8BF38B504460D4611B1012936D0BA
:1025480038BDD0F858212321FFF79CFFB4F8682143
:1025580024212046FFF796FFD4F85C212521204648
:10256800FFF790FFB4F86A2126212046FFF78AFF7B
:10257800D4F8602127212046FFF784FFB4F86C21A6
:1025880028212046FFF77EFFB4F86E212A21204635
:10259800FFF778FFD4F864212B212046FFF772FF5C
:1025A8002A4620462021BDE83840FFF76BBFD0F807
:1025B80058212321FFF766FF002224212046FFF738
:1025C80061FF002225212046FFF75CFFB4F86A214D
:1025D80026212046FFF756FFD4F860212721204600
:1025E800FFF750FF002228212046FFF74BFF00226B
:1025F8002A212046FFF746FF0022CDE738B50223FF
:1026080004460D4680F87B310021FFF793FF2A46E8
:102618002D212046FFF736FF256038BD89B24FF6D9
:10262800FF7399420ABF4FF6FE73A0F86A11A0F82B
:102638006A31B0F86A212621FFF724BF89B24FF624
:10264800FF7399420ABF4FF6FE73A0F86C11A0F809
:102658006C31B0F86C212821FFF714BF044A8A4274
:1026680028BF0A46C0F860212721FFF70BBF00BF2B
:1026780000FE7F00002180F87B11FFF7EFBF0122E9
:1026880080F87B2111B12021FFF7FCBE0222FAE776
:10269800F8B505462C4600F5BE7738460E4600F0DC
:1026A80012FA54F8083F1A6842F001021A601A68D0
:1026B80042F002021A602046FEF75CFE1422314600
:1026C8002046FEF7D2FD142285F87001002120462D
:1026D800FEF7CBFD142200212046FEF7C6FD14228A
:1026E80000212046FEF7C1FD142200212046FEF7F6
:1026F800BCFD2046FEF73BFE1C491D4B48681A6886
:102708001C4BB2FBF3F24B681B1A9A42FBDC2046C7
:10271800FEF730FE314614222046FEF7A6FD1422AD
:1027280085F8700100212046FEF79FFD142206025D
:1027380000212046FEF799FD3043060214220021AD
:102748002046FEF792FD304314220021060220465F
:10275800FEF78BFD06432046FEF709FE3846C5F80E
:10276800746100F0BAF93046F8BD00BF001000E00F
:102778002800002040420F0008B52221FFF788FFFB
:10278800030248BF40F07F40FDF75CFE07A3D3E992
:102798000023FDF7C1FE044B0022FDF707FDFEF7FD
:1027A8006BF908BDAFF300800000E03F8A1380DDBD
:1027B800E914E33F10B504462121FFF769FF94F8B7
:1027C800700110BD2121FFF763BF38B50D46002108
:1027D8000446FFF75DFF3DB140F01002204600219E
:1027E800BDE83840FFF74EBE20F01002F6E70000C3
:1027F80010B5052204460021FFF744FE20460021BB
:10280800FFF7E3FF064A70212046FFF73BFE20460C
:1028180041F28832BDE810401321FFF733BE00BFF4
:10282800800124003521FFF733BF10B5002204468C
:102838001421FFF727FE002215212046FFF722FE6C
:1028480000226D212046FFF71DFE0022342120467C
:10285800FFF718FE2046FFF7E5FF0022212120465A
:10286800FFF710FE00222D212046FFF70BFE002265
:1028780010212046FFF706FE00226C212046FFF7B4
:1028880001FE002211462046FFF7FCFD00227021C0
:102898002046FFF7F7FD002213212046FFF7F2FD3F
:1028A800002220212046FFF7EDFD94F85811002260
:1028B8002046FFF7E7FD94F8681100222046FFF74D
:1028C800E1FD94F85C1100222046FFF7DBFD94F847
:1028D8006A1100222046FFF7D5FD94F86011002206
:1028E8002046FFF7CFFD94F86E1100222046FFF72F
:1028F800C9FD94F8641120460022BDE81040FFF796
:10290800C1BD0000F8B500F1A40504462846FEF74D
:1029180077FA2846FEF70CFA04F1C80704F1080014
:10292800FEF712FC04F1EC063846FEF769FA304669
:10293800FEF766FA264B1B68384693F83033FEF7E5
:10294800FDF93046FEF7F4F92846FEF7F7F9204678
:10295800FFF76BFF94F8783194F879211B0202F0A5
:102968001F0203F4F853134394F87A21120402F473
:1029780070221A4310212046FFF784FD2046FFF7F6
:1029880037FF144A6C212046FFF77CFD00212046C2
:10299800FFF7D0FD002221212046FFF773FD00221A
:1029A8002D212046FFF76EFD4FF6FE712046FFF7FA
:1029B80045FE20464FF6FE71FFF730FE2046FFF732
:1029C80059FE22212046FFF763FE0028F9D1F8BD01
:1029D8007C0500204200010000F00700031D062BC3
:1029E8008CBFC31E00234FF0FF30984021EA00003F
:1029F8007047000010B50E4B0446062240211430E3
:102A0800FEF791F90A4B0222042104F13800FEF77F
:102A18008AF9074B0722802104F15C00FEF783F94D
:102A28009FED040A04F18C0000F05AF8204610BD0E
:102A380000000240E6042A3A38B5134D01820446E4
:102A48003830FEF7F7F9E8680121C0F30220FFF7F4
:102A5800C3FF0A460346002104F11400FEF702FAF8
:102A6800E8680021C0F30220FFF7B6FF03220346FF
:102A780004F15C00FEF7F6F9BDE8384003484FF46E
:102A8800E13103F091BB00BF00ED00E00807002032
:102A980080ED000A704700009FED037AC0EE077AC8
:102AA800C0ED017A704700BF33BBC044DFED037A45
:102AB80020EE270A80ED020A704700BF33BBC044EE
:102AC80000220270704703781BB90123037018466F
:102AD80070470020704700787047002303707047E4
:102AE800002242608260C2600261034A4261034A76
:102AF800826180ED000A70470000F0420080ED44DA
:102B0800D0ED046A90ED006AD0ED027AE6EE867A9E
:102B1800D0ED066AC0ED027AB0EE677A07EE901A39
:102B2800F8EEE77A77EEC77A90ED037AC0ED017A8E
:102B380067EEA66AA6EE267AD0ED056A80ED037ADE
:102B4800A7EEA67A80ED047A70470023836043607D
:102B5800C3600361704790ED030A70477047000037
:102B680038B50E4A0E4B054618784FF47A73B3FB06
:102B7800F0F31068B0FBF3F000F0BCF8044658B965
:102B88000F2D09D8024629464FF0FF3000F05EF8B5
:102B9800044B20461D6038BD0120FCE728000020BA
:102BA800180000201C00002008B50B4B1A6842F4DE
:102BB80000721A601A6842F480621A601A6842F455
:102BC80080721A60032000F02FF80020FFF7C8FF7A
:102BD800FFF7C4FF002008BD003C0240034A044B35
:102BE80011681B780B441360704700BF98050020DC
:102BF80018000020014B1868704700BF9805002096
:102C080038B50446FFF7F6FF631C1CBF054B1B785D
:102C1800054618BFE418FFF7EDFF431BA342FAD39C
:102C280038BD00BF180000200749CA6822F4E062D6
:102C38000302120403F4E063120C134343F0BF636E
:102C480043F40033CB60704700ED00E0164B30B51D
:102C5800DC68C4F30224C4F10705231D042D28BF32
:102C68000425062B4FF0FF338CBF033C002403FAE6
:102C780005F521EA0501A34022EA0302A140002844
:102C880041EA0203ACBF00F16040084A4FEA03136F
:102C9800B8BF00F00F00DBB2AABF00F561401354C3
:102CA80080F8003330BD00BF00ED00E014ED00E017
:102CB800002808DB0123420900F01F0003FA00F096
:102CC800014B43F82200704700E100E000280DDBCB
:102CD8004309012200F01F0002FA00F02033044AE1
:102CE80042F82300BFF34F8FBFF36F8F704700BFC9
:102CF80000E100E00138B0F1807F0BD24FF0E02313
:102D0800054A5861F02182F82310002007229861B3
:102D18001A6170470120704700ED00E0002809DBC8
:102D28004309012200F01F0002FA00F06033024A52
:102D380042F82300704700BF00E100E0704708B583
:102D4800FFF7FCFF08BD704710B5044650B1437942
:102D580003F0FF0213B90271FFF7F5FF0123637156
:102D6800002010BD0120FCE770B50446866DFFF712
:102D780041FF94F83530022B054606D08023636561
:102D8800002384F83430012070BD23681A6822F0CB
:102D980016021A605A6922F080025A61226C0AB936
:102DA800A26C1AB11A6822F008021A601A6822F096
:102DB80001021A6023681B6813F001030AD1E16D50
:102DC8003F228A40B260012284F8352084F83430EA
:102DD8001846D9E7FFF70EFF401B0528EAD920233C
:102DE80063650320002384F8350084F83430CBE78A
:102DF80090F83530022B03D08023436501207047BB
:102E08000268052380F83530136823F00103136046
:102E1800002070472DE9F74FDFF884915E4A0023C0
:102E28000D6801249C4004EA050CAC4340F0A580E1
:102E38004D6805F003044FEA43080326671E06FAA7
:102E480008F6012F6FEA060634D8876807EA060EE7
:102E5800CF6807FA08F747EA0E078760476827EA46
:102E68000C0EC5F300179F4047EA0E074760C76876
:102E780007EA060E8F6807FA08F747EA0E07022CDA
:102E8800C76019D14FEAD30A00EB8A0A03F0070B8F
:102E9800DAF820704FEA8B0B4FF00F0E0EFA0BFE8C
:102EA80027EA0E0E0F6907FA0BF747EA0E07CAF86A
:102EB800207001E0032CDAD1076804FA08F43E40D8
:102EC800264315F4403F066057D04FF0000ACDF86E
:102ED80004A0D9F84460314C46F48046C9F84460EF
:102EE800D9F8446006F480460196019E23F0030653
:102EF80006F1804606F59C3603F0030ED6F80880E6
:102F08004FEA8E0E0F2707FA0EF7A04228EA0707A6
:102F18003AD004F58064A04238D004F58064A04219
:102F280036D004F58064A04234D004F58064A04211
:102F38000CBF0424072404FA0EF43C43B4609468DC
:102F48006FEA0C06EF0254BF34404CEA0404946064
:102F5800D468AF0254BF34404CEA0404D4605468C7
:102F6800AF0354BF34404CEA040454601468ED03C2
:102F780054BF34404CEA040414600133102B7FF42E
:102F88004FAF03B0BDE8F08F5446D4E70124D2E731
:102F98000224D0E70324CEE7003C014000000240B1
:102FA80000380240044A5169014208B502D0506114
:102FB80002F08EFB08BD00BF003C0140F0B504469E
:102FC8008BB060B390F8BD34056803F0FF021BB9FD
:102FD80080F8BC2404F01EF8032384F8BD34EB6B9E
:102FE800254613F4807355F8100B08BF236101F0D0
:102FF800FBFD0FCD6E460FC60FCD0FC695E803003B
:1030080086E803002546271D97E80E0055F8100BA3
:1030180001F034FD064620B1022384F8BD340125B1
:103028004EE00146206801F0E5FD3046D4F804C0C2
:1030380024264FF0010E0146C2B2944500F101006A
:103048001CD8002324261946D8B2844503F101036D
:1030580022D80FCD6E460FC60FCD0FC695E80300D8
:1030680086E8030097E80E00206801F045FE01237A
:103078000546F0B1022284F8BD24D0E706FB0243DE
:10308800C3E9121183F83DE083F83C20A3F84420FB
:1030980083F840105965CFE706FB0042C2E9A21148
:1030A80082F87D1282F87C0282F88012C2F89412AB
:1030B800CAE784F83800206884F8BD3402F0C4F9FF
:1030C80028460BB0F0BD10B50446006894F8BC342F
:1030D800012B15D0012384F8BC34A36A012B06D137
:1030E800A369012B1EBF836B43F48033836301F014
:1030F80075FD206802F09AF9002084F8BC0410BD20
:103108000220FCE710B590F8BC24012A04460BD035
:10311800012280F8BC2480F83810006802F076F9A3
:10312800002084F8BC0410BD0220FCE770B501F053
:103138000F0606EBC60411F0800F05464FEA84041B
:103148004FF024001FD000FB065004F13C0101247D
:10315800294480F83D40CA604A780E700B7102B16C
:103168000E81022B04BF00234B7195F8BC34012B50
:1031780012D00123286885F8BC3401F080FE0020B5
:1031880085F8BC0470BD00FB065004F51F710024CF
:10319800294480F87D42DEE70220F3E710B50446B3
:1031A80001F00F0000EBC00311F0800F4FEA83031A
:1031B8004FF0240216D002FB004203F13C01012328
:1031C800214482F83D30087094F8BC34012B12D0A9
:1031D8000123206884F8BC3401F090FE002084F8B4
:1031E800BC0410BD02FB004203F51F7100232144FB
:1031F80082F87D32E7E70220F3E738B501F00F05E2
:10320800242404FB050104FB050401F51F71C4F81F
:1032180094320023C4F88C22C4F89C3284F87D329E
:1032280084F87C5203690068012B08BFC4F8902217
:10323800DAB21DB901F0B8FE002038BD01F086FFF2
:10324800FAE701F00F01242303FB0100D0F89C02E8
:10325800704738B501F00F05242404FB050104FB71
:1032680005043C3163650023E3650123E26484F8C7
:103278003D3084F83C5003690068012B08BF226583
:10328800DAB21DB901F090FE002038BD01F05EFFF2
:10329800FAE738B5436801F00F059D4204462CD87B
:1032A80011F0800F4FF024001ED000FB054200FBF8
:1032B800054101233C3182F83D3001238B700D70AC
:1032C80094F8BC249A421AD0206884F8BC3402F0DE
:1032D80049F82DB9217C206804F2C44202F006F9AD
:1032E800002084F8BC0438BD00FB01431A4603F5EE
:1032F8001F71002382F87D32DFE70120F3E7022007
:10330800F1E738B5436801F00F029A4204462AD81B
:1033180002EBC20311F0800F4FEA83034FF0240041
:1033280018D000FB024003F13C010123214480F83E
:103338003D3000258D700A7094F8BC34012B14D0F0
:103348000123206884F8BC3402F037F884F8BC54B0
:10335800284638BD00FB024003F51F7100232144B5
:1033680080F87D32E5E70120F3E70220F1E701F07C
:103378000F0303EBC3030A064FEA83034CBF03F1B1
:103388003C0103F51F710144006801F089BE00008B
:103398002DE9F04F066889B00446304602F091F8EE
:1033A8000390002840F05681206802F05BF800285E
:1033B80000F05081D6F808382068C3F30D23C4F80C
:1033C800FC3402F04FF8810748BF2268206842BFEA
:1033D800536903F00203536102F044F8C20606F58C
:1033E80000652CD52268936923F010039361D6F801
:1033F8002080C8F34343022B08F00F0740F02D81CB
:1034080047F6F07318EA030F14D0242303FB074789
:10341800C8F30A19D7F88C124A46304601F082FFE1
:10342800D7F88C324B44C7F88C32D7F89C324B44CF
:10343800C7F89C322268936943F0100393612068AF
:1034480002F010F8030300F11A81206802F00AF86C
:1034580047030CD5206802F011F82746049006F5BA
:10346800106A4FF00009049B002B40F0D0812068BF
:1034780001F0F8FF002813DA6B6823F001036B6092
:1034880094F8F434012B40F06B82002184F8F41492
:10349800204600F0E7FA2268536903F000435361BD
:1034A800206801F0DFFF01050AD5AB68DA0702D50D
:1034B800204603F023FE2268536903F40063536136
:1034C800206801F0CFFFC30433D56B68206823F070
:1034D80001036B60102101F0BDFB06F510634FF688
:1034E8007F3162680398824200F24282EB6943F0BE
:1034F8000113EB61236B002B00F05282D5F8843066
:1035080043F00B03C5F884306B6C43F00B036B641A
:10351800D6F80038217C206823F4FE63C6F800380A
:1035280004F2C44201F0E2FF2268536903F48053B5
:103538005361206801F096FF870416D5206801F0D2
:10354800C4FF206801F090FCE060276800F052FD9D
:10355800227B0146384601F0D1FA204603F0C1FD2E
:103568002268536903F400535361206801F07AFF1D
:10357800000707D5204603F0B0FD2268536903F021
:1035880008035361206801F06DFF010600F1138202
:10359800206801F067FFC2020CD5A04606F5126943
:1035A80001276368BB4200F21F822268536903F453
:1035B80080135361206801F055FF83022DD5D4F89C
:1035C80004E0234606F5326001218E4520D993F8A0
:1035D800A4C20268BCF1010F40F01C82002A80F2EC
:1035E8001982D4F8FC7402F4803207F00107BA4259
:1035F80040F0108283F8A3C2B26942F08002B2613F
:103608007269170600F106826B6843F400736B60F9
:103618002268536903F400135361206801F022FF04
:10362800410007D5204603F0A3FD2268536903F043
:1036380080435361206801F015FF42070AD52368CB
:103648005D686B0702D5204603F096FD2268536833
:103658002B43536009B0BDE8F08F062B7FF4EAAE28
:10366800082204F2C441304601F05CFE242303FB27
:103678000747C8F30A18D7F89C324344D8E62068AD
:1036880001F0F4FE06F530680490A2460027049B7A
:10369800002B3FF4DAAE049BD80776D55FFA87FB98
:1036A8002068594601F0F2FE10F0010F81461CD047
:1036B800206821690123C8F8083000F5306303EB5E
:1036C80047130129D0F840C09A6840F08B80110751
:1036D80007D5A5498C4508D9100406D54FF40042F2
:1036E80002E091065AD520229A6019F0080F21D0DD
:1036F8000823C8F8083023689B481A6C03F5306320
:1037080003EB47138242996804D9090444BF4FF474
:10371800004199602046059203F0C8FC924B059A37
:103728009A4207D92169012904D1206804F2C442C8
:1037380001F0DCFE19F0100F1CBF1023C8F8083088
:1037480019F0020F14D073691B0642BF6B6843F46B
:1037580080636B609AF87F32012B06D100238AF8C8
:103768007F325946204603F0FBFC0223C8F8083094
:1037780019F0200F1CBF2023C8F8083019F4005F87
:103788001CBF4FF40053C8F80830049B5B0801378E
:10379800049308F120080AF1240A78E712F0280FA8
:1037A800A3D171498C4501D9120497D41A69DAF862
:1037B8009832C2F312029B1ACAF89C326FB9D4F835
:1037C80094222AB904F2C442012101F08FFE04E0D8
:1037D800D4F88C221344C4F88C325946204603F09E
:1037E8006BFC82E761498C4507D111043FF576AF40
:1037F8009006F2D520229A60EFE7002FEDD1D4F899
:103808009432002BE9D104F2C4423946DDE7049B27
:10381800D80740F19C805FFA89FB2068594601F07F
:103828003EFE10F0010F804620D001216B6B09F09D
:103838000F0201FA02F223EA02036B630B46CAF88D
:103848000810216999420DD1D7E912231344FB646A
:10385800B9F1000F06D1636D23B9206804F2C442A0
:1038680001F044FE5946204603F02FFC18F0080FDB
:103878001CBF0823CAF8083018F0100F1CBF10230B
:10388800CAF8083018F0400F1CBF4023CAF80830A7
:1038980018F0020F12D04946304601F0DBF997F8CC
:1038A8003F30012B07D14FF0000387F83F305946CE
:1038B800204603F059FC0223CAF8083018F0800F9C
:1038C80045D0FA6D7B6D9A4241D89B1ABA6C216833
:1038D8000591934228BF134603339B08069301F5CD
:1038E800106303EB49130793079B06989969FA6DD0
:1038F8007B6D89B2814228D39A420CD3059B09F08B
:103908000F01D3F83428012000FA01F122EA01025C
:10391800C3F834281BE0A3EB0208BB6C0598984554
:1039280028BF984608F103039B080693237C00935D
:10393800F96C1FFA88F35A4601F0F4FBFB6C434418
:10394800FB64FB6D4344FB65CEE79A42D6D2049BE9
:103958005B0809F10109049324370AF1200A82E57A
:10396800204603F0E3FB96E50A30544F0A31544FE2
:1039780099601A6822F400121A60C3F80812D3F882
:10398800002222F40012C3F80022D3F8002242F0E9
:103998000062C3F80022039A013203922033A0E5A3
:1039A8006B6943F4005343F02B036B612B6943F0BD
:1039B8000B032B61ACE5B36923F08003B3610127E6
:1039C80004F27F284FF024096368BB427FF6E0AD1C
:1039D80009FB07F318F80330012B03D1F9B220468D
:1039E800FFF7C5FC0137EFE798F86430D9F80020F5
:1039F800012B09D1002A07DA67F07F0188F86330C4
:103A0800C9B22046FFF7B3FC013708F1240809F1D1
:103A18002009C6E5013124332030D6E5006870B5A9
:103A28001204446A19B922438262002070BD836A75
:103A38004D1E04EB134400235E1CDBB29D4205D8E7
:103A48003F3100EB810022434260EEE7403300EB58
:103A580083035B6804EB13443346EDE703680020F7
:103A680059627047704700002DE9F341044640B39E
:103A78000368DD0710D4236898075ED423681A0703
:103A880000F1A08023685B0700F1C080A0690028CE
:103A980040F0288100202BE08F4B9A6802F00C023E
:103AA800042A07D09A6802F00C02082A0BD15A6837
:103AB800510208D5884B1B689A03DCD56368002B34
:103AC800D9D1012014E06268B2F5803F13D11A6899
:103AD80042F480321A60FFF78DF87F4E054633684E
:103AE8009B03C8D4FFF786F8401B6428F7D9032046
:103AF80002B0BDE8F081784DB2F5A02F2B6807D150
:103B080043F480232B602B6843F480332B60E2E777
:103B180023F480332B602B6823F480232B60002A46
:103B2800D9D1FFF767F806462B689F03A3D5FFF79F
:103B380061F8801B6428F7D9D9E7674B9A6812F0B7
:103B48000C0F07D09A6802F00C02082A11D15B68A2
:103B58005E020ED4604A13689D0702D5E368012B04
:103B6800AFD11368216923F0F80343EAC103136056
:103B780084E7E268594BB2B101221A60FFF73AF8BC
:103B8800554D06462B68980707D52B68226923F000
:103B9800F80343EAC2032B6070E7FFF72BF8801B9A
:103BA8000228EFD9A3E71A60FFF724F84A4E054622
:103BB800336899077FF562AFFFF71CF8401B0228AE
:103BC800F6D994E76269454B82B10122C3F8802E89
:103BD800FFF710F8404E0546736F9F073FF552AF49
:103BE800FFF708F8401B0228F6D980E7C3F8802EB3
:103BF800FFF700F8384E0546736F98077FF542AF18
:103C0800FEF7F8FF401B0228F6D970E7324B1A6C12
:103C180012F0805228D101921A6C42F080521A6434
:103C28001B6C03F080530193019B01272C4D2B68DB
:103C3800D9051BD5A368284D012B27D12B6F43F03D
:103C480001032B67FEF7D6FF234E054641F288385D
:103C5800336F9B0739D5002F3FF418AF1E4A136CFA
:103C680023F08053136411E70027DFE72B6843F440
:103C780080732B60FEF7BEFF06462B68DA05D9D4A1
:103C8800FEF7B8FF801B0228F7D930E7052B04D1CF
:103C98002B6F43F004032B67D0E72A6F22F0010251
:103CA8002A672A6F22F004022A67002BCAD1FEF77E
:103CB800A1FF41F2883806462B6F9807CBD5FEF74F
:103CC80099FF801B4045F7D911E7FEF793FF401B8A
:103CD8004045BDD90BE700BF00380240000047420D
:103CE80000700040364DAB6803F00C03082B3DD044
:103CF800344B002202281A662BD1FEF77BFF0646BA
:103D08002B6899011FD4D4E907321343626A43EA46
:103D18008213E26A43EA0263A26A5208013A43EA5A
:103D280002436B60274B264D01221A66FEF762FF9D
:103D380004462B689A013FF5ADAEFEF75BFF001B0A
:103D48000228F6D9D3E6FEF755FF801B0228D7D9FB
:103D5800CDE6FEF74FFF04462B689B017FF59AAE30
:103D6800FEF748FF001B0228F6D9C0E601283FF4F9
:103D7800BFAE6B68E26903F4800191427FF4A1AEA3
:103D8800216A03F03F028A427FF49BAE616A47F6DC
:103D9800C0721A40B2EB811F7FF493AEA26A520838
:103DA80003F44031013AB1EB024F7FF48AAEE26A84
:103DB80003F07063B3EB026F3FF46CAE81E600BFB3
:103DC800003802400000474270B5224C88B00E46C9
:103DD8001546F8B90190236B43F001032363236B65
:103DE800079003F001030193019B4FF4807C0223A9
:103DF800CDE903C30323CDE9050303A91648FFF75B
:103E080009F8A36823F0EC6343EA06012943A1609B
:103E180008B070BD00230293226B104842F00402E0
:103E28002263226B079302F004020292029A4FF473
:103E380000710222CDE90312032203A9CDE905325C
:103E4800FEF7E8FFA36823F0784343EA060141EA56
:103E5800C501DCE7003802400000024000080240CB
:103E6800134908B58B6803F00C03042B1CD0082BEE
:103E78001CD14A684B68496813F4800314BF0D4885
:103E88000D48C1F3881118BF002302F03F02A1FBBF
:103E98000001FCF789FE064B5B68C3F3014301335D
:103EA8005B00B0FBF3F008BD0248FCE70248FAE704
:103EB80000380240002D31010024F4002DE9F041C2
:103EC8000D46044610B90120BDE8F081444B1A683C
:103ED80002F007028A4228D3226897072DD4D00718
:103EE80041D43F4B1A6802F00702AA4266D82268FA
:103EF80051076CD4130707D53A4A2169936823F40C
:103F0800604343EAC1039360FFF7AAFF354B364A83
:103F18009B68C3F30313D35CD840344B1860344B0D
:103F28001868FEF71DFE0020CEE7CAB21A701B689B
:103F380003F007038B42C6D1CEE72A4B12F0040FD9
:103F48001EBF996841F4E0519960160742BF99680D
:103F580041F4604199602349A0688B6823F0F0031D
:103F680003438B60BBE762681E4B012A1CD11B68A8
:103F780013F4003FA7D01B4EB36823F00303134389
:103F8800B360FEF737FE41F288380746B3686268C7
:103F980003F00C03B3EB820FA3D0FEF72BFEC01B7C
:103FA8004045F3D903208FE7911E01291B6802D8E9
:103FB80013F0007FDEE713F0020FDBE7EAB21A70B6
:103FC8001B6803F00703AB427FF47DAF8FE7054919
:103FD800E0688B6823F4E05303438B608AE700BFF3
:103FE800003C0240003802400084000828000020FD
:103FF8001C000020014B1868704700BF28000020F3
:104008007047704703681A69910710B504460ED5C2
:10401800DA6892070BD56FF002021A610122027763
:104028009B699B0777D000F097FB002323772368D1
:104038001A69500710D5DA6851070DD56FF00402D8
:104048001A61022222779B6913F4407F204668D0C8
:1040580000F082FB0023237723681A6912070FD523
:10406800DA6810070CD56FF008021A61042222776B
:10407800DB69990720465AD000F06EFB00232377AE
:1040880023681A69D20610D5DA68D0060DD56FF004
:1040980010021A6108222277DB6913F4407F204658
:1040A8004BD000F059FB0023237723681A69D10706
:1040B80008D5DA68D20705D56FF001021A612046E3
:1040C80000F01EFB23681A69100608D5DA68110685
:1040D80005D56FF080021A61204600F036F8236893
:1040E8001A69520608D5DA68500605D56FF04002FD
:1040F8001A612046FFF785FF23681A69910622D5C1
:10410800DA6892061FD56FF0200220461A61BDE8D2
:10411800104000F019B800F01DFB2046FFF770FFB3
:1041280083E700F017FB2046FFF76AFF92E700F0ED
:1041380011FB2046FFF764FFA0E700F00BFB2046C9
:10414800FFF75EFFAFE710BD70477047026802F1E6
:104158000C0353E8003F23F490730C3242E800311B
:1041680002680029F2D102F1140353E8003F23F05A
:10417800010302F1140C4CE800310029F3D1036B60
:10418800012B0BD102F10C0353E8003F23F010037D
:1041980002F10C0C4CE800310029F3D1202380F8FF
:1041A8003E3000230363704790F83D30202B18D130
:1041B800A9B1A2B190F83C30012B12D0C28401629F
:1041C8008284016800232122036480F83C3080F84F
:1041D8003D20CA6842F08002CA6018467047012034
:1041E80070470220704708B5806B0023C385C384DD
:1041F80001F086FC08BD704707B58168836A0268CC
:10420800B1F5805F3ED1016900293ED15268C2F301
:10421800080223F8022B8362C38D013B9BB2C3853E
:10422800002B2CD10268D16821F02001D160D1681F
:1042380021F48071D160516921F00101516120227E
:1042480080F83E20026B012A026828D1036302F13C
:104258000C0353E8003F23F0100302F10C0C4CE868
:1042680000310029F3D11368DB0605D501911368E5
:10427800019353680193019B818DFFF7BCFF03B045
:104288005DF804FB39B9016929B95268D2B21A70CC
:10429800836A0133BFE7526802F07F02F7E701F053
:1042A80029FCECE7036837B51A68D9685D6912F02C
:1042B8000F0F04460CD1950670D58D066ED590F873
:1042C8003E30222B64D103B0BDE83040FFF794BFE5
:1042D80005F0010001F4907505435FD0D50705D5B9
:1042E800CB0542BF236C43F001032364550704D573
:1042F80018B1236C43F002032364930704D518B163
:10430800236C43F004032364150707D501F0200349
:1043180003431EBF236C43F008032364236C002B64
:1043280036D0900608D58A0606D594F83E30222B5A
:1043380002D12046FFF760FF23685B69256C03F014
:10434800400305F008051D43204623D0FFF7FEFE75
:10435800226853695B0618D502F1140353E8003F3D
:1043680023F0400302F1140040E800310029F3D1A2
:10437800A06B50B1724B0365FEF73AFD40B1A06BDC
:10438800036D03B0BDE830401847204601F0B8FB84
:1043980003B030BD01F0B4FB2564F9E7206B0128B8
:1043A80040F09180D50640F18E80C80640F18B80A0
:1043B800002201921A6801925A680192019A5A6978
:1043C80055064CD5A16B0A68526892B2002ADFD014
:1043D800A08D9042DCD9E285CA69B2F5807F36D0DB
:1043E80003F10C0252E8002F22F4807203F10C0052
:1043F80040E800210029F3D103F1140252E8002F0C
:1044080022F0010203F1140040E800210029F3D151
:1044180003F1140252E8002F22F0400203F11400C5
:1044280040E800210029F3D1202284F83E202163AE
:1044380003F10C0252E8002F22F0100203F10C00E5
:1044480040E800210029F3D1A06BFEF78DFCE38D35
:10445800A18DC91A89B22046FFF7CDFE98E7E18DF4
:104468008AB2E18D89B2002992D0A18D891A89B2C8
:1044780000298DD003F10C0252E8002F22F490722B
:1044880003F10C0545E800200028F3D103F11402DC
:1044980052E8002F22F0010203F1140545E800203C
:1044A8000028F3D1202284F83E20206303F10C0277
:1044B80052E8002F22F0100203F10C0545E8002015
:1044C8000028F3D1C7E7100628D50D0626D594F89D
:1044D8003D20212A7FF45CAFA168226AB1F5805F94
:1044E80017D12169A9B932F8021BC1F30801596033
:1044F8002262E28C013A92B2E284002A7FF448AF49
:10450800DA6822F08002DA60DA6842F04002DA60A3
:104518003EE7511C216212785A60EAE750067FF59F
:1045280037AF4A067FF534AFDA6822F04002DA6026
:10453800202384F83D30204601F0DFFA28E700BF49
:10454800EF41000890F83C30012B11D00268242379
:1045580080F83D30D36823F00C0343F00803D360A0
:10456800202380F83D30002380F83C3018467047FF
:104578000220704790F83C30012B11D002682423A8
:1045880080F83D30D36823F00C0343F00403D36074
:10459800202380F83D30002380F83C3018467047CF
:1045A8000220704790F83D2090F83E001043704775
:1045B800C285002382852222036480F83E20026996
:1045C80080F83C30816203681AB1DA6842F480727C
:1045D800DA605A6942F001025A61DA6842F0200250
:1045E800DA600020704770B490F83E60202E10D139
:1045F80061B15AB190F83C40012C0AD0012480F8EE
:104608003C400024046370BCFFF7D2BF012070BC9B
:1046180070470220FBE7836810B5044613B10322F4
:1046280001469847204610BD10B5074C206810B1C8
:104638000430FFF7E7FCA06920B1BDE81040043062
:10464800FFF7E0BC10BD00BF9C050020034B1868B5
:1046580010B10430FFF7D6BC704700BF9C0500209E
:10466800034B586810B10430FFF7CCBC704700BF4B
:104678009C050020034B986810B10430FFF7C2BCBA
:10468800704700BF9C050020034B186910B1043027
:10469800FFF7B8BC704700BF9C050020034B586962
:1046A80010B10430FFF7AEBC704700BF9C05002076
:1046B800034BD86910B10430FFF7A4BC704700BFA2
:1046C8009C050020826810B50AB903F0EDFDBDE82D
:1046D8001040C3681847000010B5044620B90748C1
:1046E80040F2614101F07BF9204601F0A1F9006830
:1046F800836E13B16030FFF7E5FF10BDD08200086C
:10470800FFF7EABF38B5054620B9114840F27441B1
:1047180001F065F92B7F013B072B11D8DFE803F087
:1047280015041011101010130224284601F080F906
:104738000068063400EB041083680BB1FFF7C2FF72
:1047480038BD0324F1E70424EFE70124EDE700BFB7
:10475800D0820008FFF7D6BFFFF7D4BF10B50246D6
:104768000079136800283DD0002B45D050790128E6
:104778001BD0022823D030BB21494C6824EA03040B
:104788004C600C681C430C6092796AB1022A1CD0F8
:10479800032A23D0012A31D1194AD16821EA030119
:1047A800D16091680B43936010BD1549086820EAF1
:1047B800030008604868184348600020E4E710498F
:1047C80008681843F5E70120DEE70D4A916821EAF9
:1047D80003019160D1680B43D360E5E7084A91680B
:1047E8001943F6E7064A116821EA03011160516886
:1047F80021EA03035360D7E71846D5E70120D3E73A
:10480800003C01402DE9F04702460D6895FAA5F4F1
:104818004FF0010EB4FA84F403274FF00F0C35FA69
:1048280004F001D1BDE8F0870EFA04F32B4069D0FB
:104838004868461E012E1ED893FAA3F893FAA3F9E6
:10484800B8FA88F896684FEA480807FA08F826EA96
:104858000808B9FA89F98E684FEA490906FA09F68B
:1048680046EA08069660566826EA0308CE685E435C
:1048780048EA0606566093FAA3F8B8FA88F8D668A4
:1048880093FAA3F94FEA480807FA08F826EA08084D
:10489800B9FA89F90E694FEA490906FA09F646EAAA
:1048A80008060228D66019D193FAA3F6D1F8149015
:1048B80056B3B6FA86FABAF1070F25DCD2F820808B
:1048C8004FEA8A0AB6FA86F60CFA0AFAB60028EA15
:1048D8000A0809FA06F646EA0806166293FAA3F6E3
:1048E800B6FA86F6D2F8008093FAA3F37600B3FA04
:1048F80083F307FA06F65B0028EA060600FA03F3D4
:104908003343136001348AE74FEA132898FAA8F66C
:10491800B6FA86F6D2F824A0B6000CFA06F62AEA09
:10492800060A98FAA8F6B6FA86F6B60009FA06F65E
:1049380046EA0A065662D1E70246006810F04000CF
:10494800F0B527D1D1E900373B438F684D69166828
:104958000C6A3B43CF683B430F693B438F692B434A
:104968003B43CF6926F47F463B43234326F0BF06EB
:1049780033431360536823F0040343EA1545B4F541
:10498800005F556001D18B8C1361D36923F40063F8
:10499800D361F0BD0120F8E7234A036890420ED0A6
:1049A800B0F1804F0BD0A2F57C42904207D002F5BF
:1049B8008062904203D002F58062904215D14A6825
:1049C80023F070031343184A904219D0B0F1804F76
:1049D80016D0A2F57C42904212D002F58062904235
:1049E8000ED002F5806290420AD0104A904207D059
:1049F80002F58062904203D002F58062904203D1B2
:104A0800CA6823F44073134303608B68C3620B883E
:104A18008362054B984204BF0B690363436943F003
:104A2800010343610020704700000140004001403D
:104A380082B00023104A0193019B01330193019B2B
:104A4800934216D80369002BF6DA00230193036911
:104A5800094A43F001030361019B01330193019B60
:104A6800934206D8036913F00103F5D1184602B042
:104A780070470320FBE700BF400D030084B038B542
:104A880005AD85E80E000A9B012B044625D1836BF2
:104A980023F480338363C36823F4840323F040033F
:104AA800C360C36823F44013C360119B012B02BF8A
:104AB800C36843F48013C360FFF7BAFF089B012B58
:104AC80007D1A36843F00603A360A36843F020035B
:104AD800A360BDE8384004B07047C36843F04003A2
:104AE800C360FFF7A5FF0E9B23B9A36B43F4803384
:104AF800A363E3E7A36B23F48033F9E7022A4AD1DF
:104B0800274B284A0B44934239D9274B274A0B4451
:104B1800934236D9264AA1F57403A3F5105393425C
:104B280031D9244AA1F18373A3F5E74393422CD3E7
:104B3800214B224A0B44934229D9214B214A0B4449
:104B4800934226D3204B214A0B44934223D3204A35
:104B5800A1F1B773A3F5585393421ED31D4B1E4AB8
:104B68000B44934234BF07230623C26822F47052D1
:104B7800C260C26842EA8323C360002070470F23E3
:104B8800F3E70E23F1E70D23EFE70C23EDE70B2303
:104B9800EBE70A23E9E70923E7E70823E5E700BF8E
:104BA800405327FFFF340C00401E1BFF3F420F00FD
:104BB8007F4F120020D6130060B6E5FE5FE31600B3
:104BC80000D3CEFE40771B00C05BB3FEC09121002E
:104BD80020753800E05459FEE09C4100836843F09A
:104BE8000103836000207047836823F0010383601A
:104BF8000020704738B5C368012923F0C043054633
:104C0800C36010D1C36843F00053C360002401207F
:104C1800FDF7F6FF6B69D90704F1010415D4322CAE
:104C2800F5D1012038BD0029FBD1C36843F080438A
:104C3800C3600C460120FDF7E3FF6B69DA0704F156
:104C4800010402D5322CF5D1EBE7A4F13203584226
:104C58005841E7E782B00023104A0193019B0133D2
:104C68000193019B934216D80369002BF6DA890158
:104C7800002341F02001094A01930161019B01339E
:104C88000193019B934206D8036913F02003F5D1E1
:104C9800184602B070470320FBE700BF400D030031
:104CA80082B000230F4A0193019B01330193019BBA
:104CB800934214D80369002BF6DA00230193094ABA
:104CC80010230361019B01330193019B934206D892
:104CD800036913F01003F5D1184602B0704703209A
:104CE800FBE700BF400D0300D0F800381943C0F8B7
:104CF800001800207047000084B02DE9F8430446EE
:104D080009A880E80E00139D00230E46194603F1FA
:104D1800400204EB820201330F2B5160F7D104F5F6
:104D28000067002D6CD17B6843F002037B60A36BA6
:104D380043F40013A363A36B23F40023A363A36BBF
:104D480023F48023A3630023C4F8003ED4F800387A
:104D5800C4F800380E9B012B5CD10B99002957D160
:104D68002046FFF7C1FF10212046FFF773FF0146D9
:104D78002046FFF795FF0843C0B2002300383B6187
:104D880018BF01207B6104F51062FB6119464FF0E2
:104D9800904C4FF0006E4FF67F38B3423CD1002262
:104DA80004F5306311464FF0904C4FF0006E4FF60B
:104DB8007F38B24243D13B6923F480733B610023BF
:104DC800A3616FF0804363610C9B1BB9A36943F037
:104DD8001003A361A269234B1343A3610F9B1BB16B
:104DE800A36943F00803A361012D01BFA36943F040
:104DF800804343F00403A361BDE8F84304B070475F
:104E0800A36B23F40013A363A36B43F4002399E774
:104E18001946A5E70321A3E7D2F80090B9F1000FDE
:104E28000BDA3BB9C2F800E011610133C2F808801F
:104E38002032B2E7C2F800C0F6E71160F4E7D3F811
:104E48000090B9F1000F0BDA3AB9C3F800E0196124
:104E58000132C3F808802033ABE7C3F800C0F6E797
:104E68001960F4E700383C80D0F8083813F00600E1
:104E780004D013F0020F14BF02200F20704730B582
:104E88000D78012405F00F039C404B7800F5006273
:104E9800012B00EB4510D36918D11C43D461D0F81D
:104EA80000391A0410D4CA68D0F80049C2F30A03BA
:104EB8000A79234343EA824343EA855343F0805304
:104EC80043F40043C0F80039002030BD43EA0444ED
:104ED800D461D0F8003B1B04F6D4CB68D0F8002B83
:104EE800C3F30A0313430A7943EA824343F0805326
:104EF80043F40043C0F8003BE6E7000010B50A7829
:104F08004978012900EB421300F5006002F00F0216
:104F180022D1D3F8001900290BDAD3F8001941F08F
:104F28000061C3F80019D3F8001941F08041C3F8B3
:104F38000019C46B012101FA02F224EA0204C463D5
:104F4800C16921EA0202C261D3F80019144A0A4071
:104F5800C3F80029002010BDD3F8001B00290BDA84
:104F6800D3F8001B41F00061C3F8001BD3F8001B05
:104F780041F08041C3F8001BC46B4FF4803101FA43
:104F880002F224EA0204C463C16921EA0202C2618E
:104F9800D3F8001B034A0A40C3F8002BDAE700BF26
:104FA800007833EC0078F3EF4B78DFF8F0C0F0B519
:104FB8000E788D69384F012B00EB461446D104F565
:104FC8001063BDB91D692F401F611D6945F4002597
:104FD8001D611D6905EA0C05012A1D6123D14A6975
:104FE80002B15A61D4F8003943F00443C4F80039D7
:104FF8000020F0BDD3F810E00EEA0C0CC3F810C086
:10500800D3F810C00CEA07071F61CF68AF421D69CB
:1050180038BF8F6145F400251D618D691F69C5F38F
:1050280012053D43D8E7D4F8003943F00443C4F8E7
:1050380000398B69002BDBD0D0F8342806F00F0636
:105048000123B3401343C0F83438D1E7D4F8100B28
:1050580000EA0C00C4F8100BD4F8100B384004F523
:1050680030631861C86805B188611D69C86145F475
:1050780000251D611D69C0F312002843012A18612B
:1050880002D10A6902B15A61D4F8003B43F00443E3
:10509800C4F8003BACE700BFFFFF07E00000F8FFE3
:1050A80082B000234A7801930B78012A4FEA431310
:1050B8001ED100F51060C118C258002A02DB00207A
:1050C80002B07047C25842F00062C250C25842F063
:1050D8008042C25042F21072019B01330193019B3E
:1050E800934201D90120EBE70B68002BF4DBE6E7DC
:1050F80000F53060C118C258002AE0DAC25842F000
:105108000062C250C25842F08042C25042F210724D
:10511800019B01330193019B9342E3D80B68002B59
:10512800F6DBCCE710B59DF8084044B903330132EB
:105138009B0800EB023001EB83038B4201D1002076
:1051480010BD51F8042B0260F7E700002DE9F34188
:105158004D780F788B690E79DFF8BCC1DFF8BCE1B8
:10516800012D00EB471440F08E8004F51065D5F84A
:1051780010806BBB08EA0C0CC5F810C0D5F810C03D
:105188004CF4002CC5F810C0D5F810C00CEA0E0E6F
:10519800C5F810E0012A4ED14B6903B16B61012EAD
:1051A8000CD1D0F8083813F4807FD4F800390CBF3C
:1051B80043F0005343F08053C4F80039D4F8003961
:1051C80043F00443C4F80039002002B0BDE8F08180
:1051D80008EA0E0EC5F810E0D5F810E00EEA0C0C3F
:1051E800D1F80CE0C5F810C00EEB030C0CF1FF3C35
:1051F800BCFBFEFEDFF828C1D5F810800CEACE4CC7
:105208004CEA080CC5F810C0D5F810E0C3F3120C2E
:105218004CEA0E0C012EC5F810C0BBD1D5F810C051
:105228002CF0C04CC5F810C0D5F810C04CF0005C8C
:10523800C5F810C0AEE7D4F80059012E45F0044572
:10524800C4F800590BD0002BBED0D0F8343807F082
:105258000F02012797401F43C0F83478B4E7D0F80D
:10526800085815F4807FD4F800590CBF45F0005554
:1052780045F08055C4F80059009209699BB23A4636
:10528800FFF750FFA0E7D4F8105B05EA0E05C4F855
:10529800105BD4F8105B05EA0C0504F530673D6136
:1052A800CD681BBB3B69C5F312051D433D613B69D6
:1052B80043F400233B61012A02D10B6903B17B61EE
:1052C800012E0CD1D0F8083813F4807FD4F8003BB5
:1052D8000CBF43F0005343F08053C4F8003BD4F8AC
:1052E800003B43F00443C4F8003B6DE72B44DFF870
:1052F80030C0D7F810E0013BB3FBF5F39BB25D4338
:105308000CEAC34343EA0E03CD613B613B69C5F335
:1053180012051D433D61CEE7FFFF07E00000F8FFDF
:105328000000F81F034670B59008002402F003023D
:1053380003F58055844210D301EB800062B103F578
:1053480080531C680023D90024FA01F1C1540133A9
:1053580099B28A42F7D1104470BD2E6841F8246092
:105368000134E7E74A780B78012A00EB431012D1A1
:10537800D0F80029002A06DB2BB1D0F8003923F039
:105388008043C0F80039D0F8003943F40013C0F85E
:10539800003900207047D0F8002B002A06DB2BB11B
:1053A800D0F8003B23F08043C0F8003BD0F8003B26
:1053B80043F40013C0F8003BEBE70B784A7800EBA6
:1053C80043100B79012AA3F10203DBB20FD1D0F805
:1053D8000029012B22F40012C0F8002905D8D0F8C2
:1053E800003943F08053C0F8003900207047D0F8E6
:1053F800002B22F40012012BC0F8002B9EBFD0F81E
:10540800003B43F08053C0F8003BEEE7D0F800388B
:1054180023F4FE63C0F80038D0F80038090101F41D
:10542800FE611943C0F8001800207047D0F8003E0C
:1054380023F00303C0F8003ED0F8043823F0020339
:10544800C0F8043800207047D0F8003E23F003036A
:10545800C0F8003ED0F8043843F00203C0F804381E
:10546800002070474269806910407047D0F81838AA
:1054780000F50060C0691840000C7047D0F8183873
:1054880000F50060C069184080B2704700EB411118
:1054980000F50060D1F8082B40691040704710B53E
:1054A800D0F81048D0F8343800EB411001F00F0163
:1054B800CB4000F51060DB018068DBB22343184065
:1054C80010BD406900F001007047D0F8003923F49E
:1054D800FF6323F00703C0F80039D0F8043843F419
:1054E8008073C0F8043800207047000030B5056CA0
:1054F800104CA54200F5306303D9D0F8004B002CBE
:1055080016DB00241C611C6944F400241C611C691E
:1055180044F018041C611C69012944F0C0441C6152
:1055280001BF5A61D0F8003B43F08023C0F8003B2C
:10553800002030BD0A30544F86B00023052853D8C8
:10554800DFE800F003111E2B38450093274B28484D
:105558001A6B42F001021A631B6B03F001030093FC
:10556800009B06B070470193204B22481A6B42F00B
:1055780002021A631B6B03F002030193019BF0E71D
:1055880002931A4B1C481A6B42F004021A631B6BF5
:1055980003F004030293029BE3E70393134B1748BA
:1055A8001A6B42F008021A631B6B03F0080303939B
:1055B800039BD6E704930D4B11481A6B42F0100277
:1055C8001A631B6B03F010030493049BC9E705934C
:1055D800064B0C481A6B42F080021A631B6B03F0EF
:1055E80080030593059BBCE70020BAE7003802401A
:1055F800000002400004024000080240000C024083
:1056080000100240001C0240FDF7F4BA704708B5CC
:10561800FDF7E4FAFDF793FBFFF7F8FF08BD7047C5
:1056280084B0114B00220192196C41F08051196429
:10563800196C01F08051019101990292596C41F461
:1056480080415964596C01F4804102910299039296
:105658001A6B42F480521A631B6B03F48053039352
:10566800039B04B0704700BF003802400C4BD3F8CE
:10567800FC20D2015EBFD3F8FC2042F08072C3F850
:10568800FC20084B00225A601A6842F001021A6096
:1056980000BF00BF00BF5868B0FA80F040097047EB
:1056A80000ED00E0001000E008B5FFF7B9FFFFF7D4
:1056B800DDFFFDF779FAFFF7B2FF00F0AFFA034814
:1056C800FDF742FBBDE8084001F09CBE2000002029
:1056D8000023012803F1010202D040081346F8E72D
:1056E8001421DBB24B43044A181D1044816811B1E0
:1056F80013441B6918477047BC0500200120FDF7BB
:1057080051BC0220FDF74EBC0B4B1B6810B573B1A2
:10571800FCF7BCF901280AD1084B5A69520706D58B
:1057280004225A61064BBDE81040DB681847BDE803
:1057380010400420FDF736BC7C050020003C0140E9
:10574800000000200820FDF72DBC1020FDF72ABC22
:10575800124B1B6870B54BB905242025A8B2FDF77C
:1057680021FC013C4FEA4505F8D170BDFCF78EF9E4
:105778000128F1D10A4B5A69110606D580225A61CF
:10578800084B1B69BDE8704018475A695206ECD5AA
:1057980040225A61034B9B68F4E700BF7C05002058
:1057A800003C01400000002038B506244FF4806515
:1057B800A8B2FDF7F7FB013C4FEA4505F8D138BD23
:1057C800204B07211975082183F82810092183F82F
:1057D8003C100A21062283F8501017211A7083F80A
:1057E8006410002283F8781083F88C1083F8A010D6
:1057F80083F8B4102821DA601A625A639A64DA6569
:105808001A67C3F88420C3F89820C3F8AC20C3F8FB
:10581800C02083F8C810C3F8D42083F8DC10C3F87C
:10582800E82083F8F010C3F8FC2083F80411C3F8CB
:10583800102183F81811C3F8242183F82C11C3F818
:1058480038217047BC05002038B5054CA4F5A07573
:10585800143C201DFEF7DFFEAC42F9D138BD00BF75
:10586800FC06002030B591FAA1F391FAA1F1B3FA40
:1058780083F3C4685B000325B1FA81F105FA03F3E9
:10588800490024EA03038A401343C36030BD000083
:10589800484B00F00F02B0F1FF3F2DE9F04153F8FB
:1058A800225080460E4601F00707C0F3031403D1C7
:1058B80041489E2100F093F82046FFF73DFE95FAF7
:1058C800A5F2B2FA82F283680321520001FA02F2C9
:1058D80023EA020195FAA5F3B3FA83F35A000323E6
:1058E80093400B4304468360032F35D8DFE807F065
:1058F8001D1D021D18F0080FC6F3062217D02B0A2B
:1059080093FAA3F1B1FA81F1406A93FAA3F38900FB
:105918004FF00F0CB3FA83F30CFA01F19B0020EA65
:10592800010102FA03F30B4363623B4619E095FA5F
:10593800A5F1B1FA81F1036A89000F2000FA01F19B
:1059480023EA010195FAA5F3B3FA83F39B0002FA5F
:1059580003F30B432362E8E71748FB2100F03FF805
:10596800002395FAA5F2B2FA82F2216852000320C8
:1059780000FA02F221EA020195FAA5F2B2FA82F2DD
:1059880052009340013F0B43012F236005D8636801
:1059980032074CBF2B43AB436360C6F30112012AA5
:1059A80002D0022A18BF002229462046BDE8F0414D
:1059B800FFF758BFC0830008488300084B6813B935
:1059C8004FF0FF307047834201D1086870470C31AF
:1059D800F4E708B1FFF7F2BF4FF0FF307047FEE77A
:1059E8001049D1F8883043F47003C1F888300E4B61
:1059F8001A6842F001021A6000229A601A6822F0BE
:105A0800847222F480321A60084A5A601A6822F4B2
:105A180080221A604FF43F02DA604FF000638B6017
:105A2800704700BF00ED00E000380240103000244D
:105A38000438704708B5074B90F8612053F82200E6
:105A4800FEF7B0FD00F02200A0F1220358425841B1
:105A580008BD00BFFC06002008B5074B90F8612080
:105A680053F82200FEF79EFD00F02100A0F121036B
:105A78005842584108BD00BFFC06002038B51546FD
:105A88000446B8B1C16490F96000FDF71FF9A36E30
:105A9800B4F8721094F8610013FA81F1064BAAB2B7
:105AA80053F82000FEF780FB94F96000BDE8384009
:105AB800FDF7FEB838BD00BFFC06002048B1436DB5
:105AC800013306D190F86120024B53F82200FEF70B
